:020000040800F2
:1000000020050020090100081D070008BB060008A4
:1000100019070008A9050008D10E0008000000001B
:10002000000000000000000000000000FD080008C3
:10003000C50500080000000099070008110A000823
:100040002301000823010008230100082301000800
:1000500023010008230100082301000823010008F0
:1000600023010008230100082301000823010008E0
:1000700023010008230100082301000823010008D0
:1000800023010008230100082301000823010008C0
:1000900023010008230100082301000823010008B0
:1000A00023010008230100082301000823010008A0
:1000B00023010008810A0008290B00082301000819
:1000C0002301000823010008230100082301000880
:1000D00023010008990C000823010008E50C000822
:1000E0002301000823010008230100082301000860
:1000F00023010008DFF80CD000F048F80048004762
:1001000005110008200500200648804706480047E2
:10011000FEE7FEE7FEE7FEE7FEE7FEE7FEE7FEE7B7
:10012000FEE7FEE7190A0008F500000830B50546AD
:100130002A460B4612F8010B13F8014B08B1A042F6
:10014000F8D01CB1002802D06D1CF1E7284630BD64
:10015000421C10F8011B0029FBD1801A704730B5F2
:100160000B46014600202022012409E021FA02F575
:100170009D4205D303FA02F5491B04FA02F528440F
:10018000151EA2F10102F1DC30BD0000064C074D46
:1001900006E0E06840F0010394E807009847103457
:1001A000AC42F6D3FFF7AAFF441400086414000819
:1001B00010B5A3A000F08EFE4FF4967000F004FA84
:1001C000A2A0A3490860A3A1A348FFF7AFFFA049DD
:1001D000086000F0EBF911E000F0E8F998A000F0F9
:1001E00079FE4FF4967000F0EFF998A098490860F6
:1001F00098A19948FFF79AFF9549086094480068CC
:100200000028E9D09248006801F026F893A000F099
:1002100061FE4FF4967000F0D7F98CA08C4908600D
:100220008CA18D48FFF782FF8949086000F0BEF974
:1002300011E000F0BBF989A000F04CFE4FF496707D
:1002400000F0C2F981A08249086082A18248FFF7CC
:100250006DFF7F4908607E4800680028E9D07C482F
:10026000006800F0F9FF80A000F034FE4FF49670B3
:1002700000F0AAF975A07649086076A17648FFF7E4
:1002800055FF7349086000F091F911E000F08EF914
:1002900075A000F01FFE4FF4967000F095F96BA06A
:1002A0006B4908606BA16C48FFF740FF6849086024
:1002B000674800680028E9D06548006800F0CCFF76
:1002C0006CA000F007FE4FF4967000F07DF95FA07F
:1002D0005F4908605FA16048FFF728FF5C4908603C
:1002E00000F064F911E000F061F962A000F0F2FDA5
:1002F0004FF4967000F068F954A05549086055A174
:100300005548FFF713FF524908605148006800281C
:10031000E9D04F48006800F09FFF5EA000F0DAFDD2
:100320004FF4967000F050F948A04949086049A17F
:100330004948FFF7FBFE4649086000F037F911E035
:1003400000F034F953A000F0C5FD4FF4967000F0B2
:100350003BF93EA03E4908603EA13F48FFF7E6FE5C
:100360003B4908603A4800680028E9D038480068EE
:10037000FFF7EEFE04460523224649A134480068F3
:1003800000F082FF0128DBD03148006800F064FFF4
:1003900045A000F09FFD4FF4967000F015F92BA0DA
:1003A0002B4908602BA12C48FFF7C0FE28490860A4
:1003B00000F0FCF811E000F0F9F83BA000F08AFD35
:1003C0004FF4967000F000F920A02149086021A1A7
:1003D0002148FFF7ABFE1E4908601D480068FFF783
:1003E000B7FE04460823224633A11948006800F0EE
:1003F0004BFF0128DFD016480068FFF7A9FE04462E
:100400000523224626A11248006800F03DFF01287E
:10041000D1D00F48006800F01FFF2AA000F05AFD5D
:100420000AA00B4908600BA10B48FFF77FFE0849A3
:10043000086000F0BBF80648006800F00DFF10BD32
:1004400041542B434D45453D310D0A00000000004D
:100450000C0000204F4B00005800002041542B435B
:1004600046554E3D300D0A0041542B4347534E3DF7
:10047000310D0A0041542B4E4344503D3138302E4B
:100480003130312E3134372E3131352C3536383349
:100490000D0A000041542B4346554E3D310D0A00D4
:1004A0004552524F5200000041542B43474154548F
:1004B0003D310D0A000000002B43455245473A32BA
:1004C0000000000041542B4E4D47533D32312C303B
:1004D000313033313030313031303230383030300B
:1004E00030343030303430303031343143303630E5
:1004F00030303030303638424400000070B50446A9
:100500000D462A46214617A000F0E4FC4FF49670F1
:1005100000F05AF81DA11E48FFF708FE1D490860AB
:1005200005E01AA11A48FFF701FE1A4908601948A8
:1005300000680028F5D04FF40061174800F0B7F8C4
:10054000012000F0C3FD15A000F0AEFC012000F07A
:10055000BDFD4FF40061104800F0A7F800F026F848
:1005600070BD000041542B4E534F53543D302C313D
:1005700031352E32392E3234302E34362C3630305E
:10058000302C25642C25730D0A0000004F4B000011
:10059000580000200C0000200000024053656E64EB
:1005A000204F4B0D0A00000000BFFEE710B50348C6
:1005B00000F07AFC00200249087010BD58000020AD
:1005C0004D0000207047000001B504490098086004
:1005D00000BF024800680028FBD108BD08000020C9
:1005E000F0B502460B46002100240025002000BF84
:1005F00035E0012606FA01F41E6806EA0405A54264
:100600002CD110684F000326BE40B0431E794F0026
:10061000BE40304310601E79012E02D01E79022E9A
:1006200012D190684F000326BE40B0435E794F0060
:10063000BE4030439060908801268E40B0439E7942
:100640008E40B6B230439080D0684F000326BE4043
:10065000B043DE794F00BE403043D060491C1029C2
:10066000C7D3F0BDF0B5002300244D07ED0E02FA0C
:1006700005F3CE1000F1200555F826504E07F70E71
:100680000F26BE40B543CF1000F1200646F8275094
:10069000CE1000F1200555F8265045EA0304CE108F
:1006A00000F1200545F82640F0BD418370470183E5
:1006B0007047828A4A408282704700BFFEE700008E
:1006C0001CB50121022000F069F801208DF804001A
:1006D0004FF40170009069460D48FFF781FF01213A
:1006E000084600F05BF84FF40060009001208DF8A0
:1006F000040002208DF8050000208DF8060001207E
:100700008DF8070069460348FFF76AFF1CBD00002B
:10071000000402400000024000BFFEE770470000F6
:1007200070B5002100230F22C4781CB3174C246835
:1007300004F4E064C4F5E064C4F30721C1F10404E7
:10074000E3B20A4144789C40E1B2847814402143EA
:100750000C07210E0E4C05786155047804F01F0536
:100760000124AC4005786D11AD0005F1E025C5F818
:10077000004109E0047804F01F050124AC40054D58
:100780000678761145F8264070BD00000CED00E0BB
:1007900000E400E080E100E07047000029B1064A73
:1007A00012680243044B1A6004E0034A1268824351
:1007B000014B1A60704700001C38024029B1064AFC
:1007C00012680243044B1A6004E0034A1268824331
:1007D000014B1A60704700002438024029B1064AD4
:1007E00012680243044B1A6004E0034A1268824311
:1007F000014B1A607047000020380240F0B500211C
:1008000000220023002600240025374F3F6807F010
:100810000C0131B1042912D0082913D00C2934D18C
:1008200013E0314F3F1F3F68C7F342356F1C4FF055
:10083000010C0CFA07FC4FEACC37076033E02B4F72
:10084000076030E02A4F07602DE0274F3F6807F42C
:100850007012254F3F6807F44003264F07EB92477D
:100860003A78012707EB93531F4F3F6807F4803610
:100870002EB91E4F5743B7FBF3F7076004E01C4F38
:100880005743B7FBF3F707600DE0174F3F1F3F6873
:10089000C7F342356F1C4FF0010C0CFA07FC4FEA0E
:1008A000CC37076000BF00BF0F4F3F6807F0F00173
:1008B0000909114F7C5C0768E74047600A4F3F68B1
:1008C00007F4E061090A0C4F7C5C4768E7408760E9
:1008D000054F3F6807F46051C90A074F7C5C4768C1
:1008E000E740C760F0BD0000083802400024F40073
:1008F00000127A00140000201D0000207047000044
:100900000CB50020019000903E48006840F4803013
:100910003C49086000BF3B48006800F4003000908C
:100920000198401C0190009818B90198B0F5A04FAB
:10093000F1D13448006800F4003010B1012000907B
:1009400001E0002000900098012859D12E4800684D
:1009500040F004002C4908600846006840F002009E
:1009600008600846006840F001000860254824300F
:10097000006840F08050234924310860C81423499E
:10098000086000BF2148406800F010000028F9D13D
:100990001C48083000681B49083108600846006898
:1009A00008600846006808600846006820F47D007A
:1009B00008600846006840F41100086011480068AB
:1009C00040F080700F49086000BF0E48006800F0DA
:1009D00000700028F9D00B480830006820F00300B0
:1009E0000849083108600846006840F003000860C4
:1009F00000BF04480830006800F00C000C28F8D153
:100A00000CBD000000380240003C02400070004075
:100A100010B500F035F910BD10B51548006840F468
:100A20008070134908601248083000681149084076
:100A30000F49083108600E4800680F4908400C490A
:100A400008600846006820F48020086008480830E4
:100A5000006820F47D000649083108600020091D67
:100A60000860FFF74DFF4FF000600449086010BDBB
:100A7000003802400CC0FF88FEFFFEEE08ED00E0EB
:100A800010B501210D4800F0B0F8A8B101210B48C4
:100A900000F09CF80A480078401C09490870084694
:100AA0000078022808DB0020087001200549087042
:100AB0000021024800F08DF810BD00000004004045
:100AC0004F000020500000207FB505460C46012154
:100AD0000220FFF773FE0295A0B2ADF804000020DB
:100AE000ADF80C00ADF8060001A90E4800F098F82A
:100AF000012211460B4800F089F81D208DF80000F6
:100B000000208DF8010003208DF8020001208DF8EF
:100B100003006846FFF704FE0021024800F059F880
:100B20007FBD00000004004010B501210C4800F01A
:100B30005CF898B101210A4800F048F809480078AB
:100B4000401C0849087008460078012806DB002090
:100B500008704FF400710448FFF7ABFD10BD0000B2
:100B60000008004051000020000402407FB5054607
:100B70000C4601210420FFF721FE0295A0B2ADF83A
:100B800004000020ADF80C00ADF8060001A90E48E5
:100B900000F046F8012211460B4800F037F81E20FD
:100BA0008DF8000001208DF8010003208DF802006F
:100BB00001208DF803006846FFF7B2FD01210248CD
:100BC00000F007F87FBD000000080040CA43028221
:100BD000704721B1028842F00102028004E00288DD
:100BE0004FF6FE731A400280704730B5024600206F
:100BF00000230024158A05EA0103958905EA01040A
:100C000013B10CB1012000E0002030BD1AB183897E
:100C10000B43838102E083898B438381704700000B
:100C200000220288B0F1804F08D0104B984205D0C6
:100C30000F4B984202D00F4B984204D14FF68F735E
:100C40001A404B881A430C4B984207D00B4B9842E2
:100C500004D04FF6FF431A400B891A4302804B68B9
:100C6000C3620B8803850123838270470004004020
:100C700000080040000C004000100040001400403C
:100C80000448006820B103480068401E014908601C
:100C9000704700000800002010B540F225510C48B4
:100CA00000F046F890B101210A48FFF792FF0020BA
:100CB00009490870064800F0F1F8C1B20748027807
:100CC0000078401C054B18700548815410BD000089
:100CD00000380140000400404F0000204E0000207A
:100CE000BC00002010B540F22551084800F020F863
:100CF00058B1064800F0D2F8C1B205480278007831
:100D0000401C034B18700348815410BD004800403C
:100D10004D0000205800002021B1828942F4005289
:100D2000828104E082894DF6FF731A408281704708
:100D300070B50246002400230025002040F66A1604
:100D4000B14200D100BFC1F3421501F01F030126DB
:100D500006FA03F3012D02D19689334006E0022DF5
:100D600002D1168A334001E0968A33400C120126E4
:100D700006FA04F41688344013B10CB1012000E0E7
:100D8000002070BDF0B50346002400260025002099
:100D900040F66A17B94200D100BF1846C1F34214A9
:100DA00001F01F06012707FA06F5012C01D10C30CE
:100DB00004E0022C01D1103000E014301AB10768B1
:100DC0002F43076002E00768AF430760F0BD0000F3
:100DD0002DE9FF4705460E460024A14600BFA04668
:100DE000B08900B100BF2C8A24F44054F088044339
:100DF0002C82AC8941F20C608443B088318908436D
:100E0000718908430443AC81AC8A24F44074B089EE
:100E10000443AC826846FFF7F1FC1F48854202D1CB
:100E2000DDF80C9001E0DDF80890A88900F400409E
:100E300040B109EBC90000EB091031684900B0FB73
:100E4000F1F707E009EBC90000EB091031688900F0
:100E5000B0FBF1F76420B7FBF0F004012009642136
:100E600001FB1078A88900F4004040B1322000EB6B
:100E7000C800B0FBF1F000F00700044308E03220A6
:100E800000EB08106421B0FBF1F000F00F00044308
:100E90002C81BDE8FF8700000038014001468888AA
:100EA000C0F30800704700000CE000BF0749098844
:100EB00001F040010029F9D0017849B2034A121D1E
:100EC0001180401C01780029EFD1704700380140A3
:100ED00000BFFEE70FB4054B10B503A9044A029802
:100EE00000F018F810BC5DF814FB0000E9100008D1
:100EF0005400002002E008C8121F08C1002AFAD1DD
:100F000070477047002001E001C1121F002AFBD189
:100F1000704700002DE9FF4F8BB09A460F460546FB
:100F2000002606E025280BD052460D9990476D1CEF
:100F3000761C28780028F5D10FB03046BDE8F08F38
:100F40000024A0460122604900E0044315F8013F57
:100F5000203B02FA03F00842F7D128782E2817D157
:100F600015F8010F44F004042A280ED06FF02F0268
:100F70002878A0F1300109290AD808EB880102EB92
:100F8000410100EB01086D1CF2E757F8048B6D1C62
:100F9000287869283ED006DC0028CDD063280BD005
:100FA000642804D136E0732810D075284BD05246FF
:100FB0000D999047761C85E017F8040B8DF800001A
:100FC00000208DF80100E946012003E057F8049B5A
:100FD0004FF0FF3061074FF0000401D40AE0641CB9
:100FE00044450DDA8442FADB19F804100029F6D1E1
:100FF00006E0641C8442FCDB19F804100029F8D1D7
:10100000264404E019F8010B52460D999047641EDE
:10101000F8D257E001CF4FF00A0B002802DA404225
:101020002D2102E0210504D52B218DF8241001216A
:1010300003E0E10705D02021F7E70DF12009089131
:101040000CE00021F9E701CF4FF00A0BF9E7594610
:10105000FFF785F801F1300209F8012D0028F6D1DB
:10106000ADEB090000F1200B600701D44FF001083F
:10107000D84502DDA8EB0B0000E0002080460024EC
:1010800006E009A85246005D0D999047641C761C45
:1010900008988442F5DB04E0302052460D999047D1
:1010A000761CB8F10001A8F10108F5DC05E019F89B
:1010B000010B52460D999047761CBBF10001ABF134
:1010C000010BF4DC6D1C34E709280100014607E040
:1010D0006E2201E0531E1AB2002AFBDC4B1E19B22D
:1010E0000029F5DC7047000000BF054A128802F0B5
:1010F0004002002AF9D042B2014B1B1D1A807047F2
:10110000004800409AB04D4800684FF47A72B0FB36
:10111000F2F1481EB0F1807F01D301201BE0481E90
:101120004FF0E022506150170F22002807DA130712
:101130001F0E434B00F00F06361F9F5503E01307A9
:101140001E0E404B1E5400BF00204FF0E022906165
:1011500007201061002008B100BFFEE700203A49D7
:1011600008704FF400613948FFF79FFAFFF7A8FABB
:101170004FF4165000F006F94FF4165000F0A2F8A4
:1011800040F67F416320FFF79FFC40F67F4141F22C
:101190008730FFF7EBFCFFF70BF84DE02A480078AB
:1011A000012845D100202A492A4A1278885400246F
:1011B0002AE02748005D0509092D06DC05F130000D
:1011C00040B201A901F8140005E005F1370040B272
:1011D00001A901F814001E48005D00F00F05092D5B
:1011E00008DC05F1300040B2012101EB440101AA05
:1011F000505407E005F1370040B2012101EB4401F2
:1012000001AA5054601C44B2124800788442D0DBDA
:1012100000211048007801AA02F8101001A90D4819
:101220000078FFF76BF9002007490870094908703A
:101230004FF47A70FFF7C8F9B0E7000030000020E3
:1012400018ED00E000E400E0500000200000024043
:10125000BC0000204E00002010B504464FF4006191
:101260000848FFF724FA0120FFF730FF2046FFF778
:101270001BFE0120FFF72AFF4FF400610148FFF732
:1012800014FA10BD00000240F0B504460D461646A3
:10129000002200BF11E0002100BF06E05018205CD2
:1012A0006F5CB84200D002E0491C9942F6DB00BFF7
:1012B000994201D10120F0BD521CB242EBDB00206B
:1012C000F9E7000010B588B0044601210220FFF7BD
:1012D00065FA01218804FFF771FA07220A212748DD
:1012E000FFF7C0F907220B212448FFF7BBF94FF4A1
:1012F0008060069002208DF81C008DF81D000020F3
:101300008DF81E0001208DF81F0006A91B48FFF76D
:1013100067F94FF40060069002208DF81C0006A9C2
:101320001648FFF75DF927208DF8040001208DF89D
:1013300005008DF806008DF8070001A8FFF7F0F909
:1013400002940020ADF80C00ADF80E00ADF81000CE
:10135000ADF814000C20ADF8120002A90848FFF700
:1013600037FD012240F225510548FFF70BFD012111
:101370000348FFF7D1FC08B010BD00000004024094
:101380000048004010B588B0044601210846FFF728
:1013900005FA01218803FFF721FA072209212748CE
:1013A000FFF760F907220A212448FFF75BF94FF4A1
:1013B0000070069002208DF81C008DF81D000020A2
:1013C0008DF81E0001208DF81F0006A91B48FFF7AD
:1013D00007F94FF48060069002208DF81C0006A9E2
:1013E0001648FFF7FDF825208DF8040003208DF83E
:1013F00005008DF8060001208DF8070001A8FFF711
:101400008FF902940020ADF80C00ADF80E00ADF895
:101410001000ADF814000C20ADF8120002A9084825
:10142000FFF7D6FC012240F225510548FFF7AAFC40
:1014300001210348FFF770FC08B010BD0000024016
:10144000003801406414000800000020580000002B
:10145000F40E0008BC14000858000020C804000066
:10146000040F000800000000000000000000000061
:101470000000000000000000030406080C10182003
:101480003000000000010203040102030406070803
:10149000090000000048E801030406080C101820A9
:1014A00030000000000000000001020304060708ED
:0C14B00009000000000000000000000027
:04000005080000F5FA
:00000001FF
